:100000000C945D000C9485000C9485000C94850084
:100010000C9485000C9485000C9485000C9485004C
:100020000C9485000C9485000C9485000C946B0254
:100030000C9485000C9485000C9485000C9485002C
:100040000C9421020C9485000C9485000C9485007E
:100050000C9485000C9485000C9485000C9485000C
:100060000C9485000C94850000000008000201003B
:100070000003040700000000000000000000000072
:10008000250028002B0000000000240027002A0083
:10009000040404040404040402020202020203032E
:1000A0000303030301020408102040800102040836
:1000B0001020010204081020080411241FBECFEFF5
:1000C000D8E0DEBFCDBF11E0A0E0B1E0E6E1F9E0AD
:1000D00002C005900D92A030B107D9F721E0A0E051
:1000E000B1E001C01D92AA33B207E1F710E0CDE5FF
:1000F000D0E004C02197FE010E948304CC35D107D3
:10010000C9F70E9442030C9489040C940000CF9319
:10011000DF93DC018C918C3008F06DC0CB01FB01CA
:10012000EC55FF4F249180579F4FFC018491882309
:1001300099F090E0880F991FFC01EA57FF4FC59195
:10014000D491FC01E458FF4F859194918FB7F894B6
:10015000E881E22BE8838FBF8C91282F30E0F901F2
:10016000EE0FFF1FE20FF31FEA5EFE4F962F9F7305
:100170006081607C692B608311961C9211971296A6
:100180001C9212972CE0622F0E947704829FB0018C
:10019000112430E020E0AB01420F531FFA01EE0FB3
:1001A000FF1FE40FF51FEA5EFE4F908196FD16C01B
:1001B0002F5F3F4F2C30310571F781110FC0109226
:1001C000800082E08093810010928500109284006C
:1001D000B19A80916F00826080936F00EC918E2FB6
:1001E00090E0FC01EE0FFF1FE80FF91FEA5EFE4FE3
:1001F0008081806480838C91DF91CF91089590E01D
:10020000FC01E859FF4F2491FC01EC55FF4F34915C
:10021000FC01E057FF4FE491EE23C9F0222339F0AF
:10022000233001F1A8F4213019F1223029F1F0E056
:10023000EE0FFF1FE458FF4FA591B4918FB7F894CC
:10024000EC91611126C030953E233C938FBF0895F9
:100250002730A9F02830C9F0243049F78091800078
:100260008F7D03C0809180008F7780938000DFCFE7
:1002700084B58F7784BDDBCF84B58F7DFBCF809134
:10028000B0008F778093B000D2CF8091B0008F7D87
:10029000F9CF3E2BDACF3FB7F894809112019091BD
:1002A0001301A0911401B091150126B5A89B05C0BA
:1002B0002F3F19F00196A11DB11D3FBFBA2FA92FE5
:1002C000982F8827BC01CD01620F711D811D911DE2
:1002D00042E0660F771F881F991F4A95D1F708954E
:1002E0008F929F92AF92BF92CF92DF92EF92FF9246
:1002F0000E944B014B015C0185E0C82ED12CE12C02
:10030000F12C0E944B01681979098A099B09683E02
:10031000734081059105A8F321E0C21AD108E108D4
:10032000F10888EE880E83E0981EA11CB11CC11450
:10033000D104E104F10429F7FF90EF90DF90CF9012
:10034000BF90AF909F908F900895CF92DF92EF92E1
:10035000FF92CF93DF93EC01603282E07807CCF517
:10036000653B710514F064EB70E0898128E830E0AA
:10037000281B310987FD3395220F331F220F331FAE
:100380006901330FEE08FF088A8128E532E0281B57
:10039000310987FD3395220F331F220F331F032EA0
:1003A000000C440B550B2C193D094E095F09DB016C
:1003B00077FF02C0B0E0A0E00E943E0424EB30E0F2
:1003C00040E050E00E941404C20ED31EE41EF51E4D
:1003D000B601E881EC3070F5298188E890E0821B55
:1003E000910927FD9395880F991F880F991F68170A
:1003F00079077CF02A8188E592E0821B910927FD2C
:100400009395880F991F880F991F681779070CF427
:10041000CB010297880F991F4FB7F8942E2F30E029
:10042000F901EE0FFF1FE20FF31FEA5EFE4F92830A
:1004300081834FBFDF91CF91FF90EF90DF90CF90FE
:1004400008951F920F920FB60F9211242F933F938E
:100450008F939F93AF93BF9380910E0190910F0163
:10046000A0911001B091110130910D0123E0230FF3
:100470002D3758F50196A11DB11D20930D018093D4
:100480000E0190930F01A0931001B0931101809180
:10049000120190911301A0911401B09115010196E0
:1004A000A11DB11D8093120190931301A09314011B
:1004B000B0931501BF91AF919F918F913F912F9173
:1004C0000F900FBE0F901F90189526E8230F0296ED
:1004D000A11DB11DD2CF1F920F920FB60F92112402
:1004E0002F933F934F935F936F937F938F939F933C
:1004F000AF93BF93CF93DF93EF93FF93809100016E
:10050000C0910101D0E087FF24C0109285001092B5
:100510008400809100018F5F809300018091000131
:10052000082E000C990B8C179D0724F48091000174
:100530008C30C4F1809184009091850004968034C1
:100540009C4908F47AC080918400909185000496BB
:1005500076C080910001082E000C990B8C179D0726
:10056000C4F6E09100018E2FEE0F990BFC01EE0F07
:10057000FF1FE80FF91FEA5EFE4F808186FFC9CF9B
:10058000E09100018E2FEE0F990BFC01EE0FFF1F83
:10059000E80FF91FEA5EFE4F808160E08F730E94D2
:1005A000FF00B7CF2091840030918500E0910001D9
:1005B0008E2FEE0F990BFC01EE0FFF1FE80FF91FB6
:1005C000EA5EFE4F81819281820F931F9093890092
:1005D00080938800E09100018E2FEE0F990BFC01B3
:1005E000EE0FFF1FE80FF91FEA5EFE4F808186FFC6
:1005F00011C0E09100018E2FEE0F990BFC01EE0F60
:10060000FF1FE80FF91FEA5EFE4F808161E08F73E4
:100610000E94FF00FF91EF91DF91CF91BF91AF91C9
:100620009F918F917F916F915F914F913F912F910A
:100630000F900FBE0F901F90189580E49CE9909347
:100640008900809388008FEF80930001E3CFFC0145
:10065000909101019C3098F481E0890F8093010111
:100660009083892F90E0FC01EE0FFF1FE80FF91F28
:10067000EA5EFE4F88EB9BE09283818308958FEFC3
:1006800080830895789484B5826084BD84B5816048
:1006900084BD85B5826085BD85B5816085BD80914D
:1006A0006E00816080936E001092810080918100C5
:1006B00082608093810080918100816080938100BD
:1006C000809180008160809380008091B10084607F
:1006D0008093B1008091B00081608093B0008091E0
:1006E0007A00846080937A0080917A00826080939F
:1006F0007A0080917A00816080937A0080917A00FC
:10070000806880937A001092C10069E070E082E016
:1007100091E00E9487006BE070E088E091E00E9429
:1007200087006AE070E085E091E00E94870004EBBA
:1007300010E080E0E82E80E0F82E10920C0110927C
:100740000B01C0910B01D0910C01C53BD10584F484
:10075000BE0188E091E00E94A501BE0185E091E024
:100760000E94A5012196D0930C01C0930B01E9CF03
:1007700010930C0100930B01C0910B01D0910C015F
:10078000D7FD0DC0BE0182E091E00E94A5010E944C
:1007900070012197D0930C01C0930B01EDCF109203
:1007A0000C0110920B01C0910B01D0910C01C53BC3
:1007B000D1055CF4BE0182E091E00E94A501219682
:1007C000D0930C01C0930B01EECF10930C0100935A
:1007D0000B01C0910B01D0910C01D7FD12C0BE01DD
:1007E00088E091E00E94A501BE0185E091E00E94B1
:1007F000A5010E9470012197D0930C01C0930B01B9
:10080000E8CFE114F10409F498CF0E94000095CFDD
:1008100082E091E00E94270388E091E00E94270394
:1008200085E091E00C942703052E97FB1EF40094BD
:100830000E942B0457FD07D00E94460407FC03D0FA
:100840004EF40C942B0450954095309521953F4FD4
:100850004F4F5F4F089590958095709561957F4FAC
:100860008F4F9F4F08950E946804A59F900DB49FDD
:10087000900DA49F800D911D11240895B7FF0C9435
:1008800033040E943304821B930B0895A1E21A2EB5
:10089000AA1BBB1BFD010DC0AA1FBB1FEE1FFF1F24
:1008A000A217B307E407F50720F0A21BB30BE40B74
:1008B000F50B661F771F881F991F1A9469F76095BB
:1008C0007095809590959B01AC01BD01CF01089575
:1008D000A29FB001B39FC001A39F700D811D112481
:1008E000911DB29F700D811D1124911D0895991BBA
:1008F00079E004C0991F961708F0961B881F7A9517
:10090000C9F780950895EE0FFF1F0590F491E02D33
:060910000994F894FFCFEA
:00000001FF
