:100000000C945D000C9485000C9485000C94850084
:100010000C9485000C9485000C9485000C9485004C
:100020000C9485000C9485000C9485000C9485003C
:100030000C9485000C9485000C9485000C9485002C
:100040000C94BD030C9485000C942D040C940704AF
:100050000C9485000C9485000C9485000C9485000C
:100060000C9485000C94850000000008000201003B
:100070000003040700000000000000000000000072
:10008000250028002B0000000000240027002A0083
:10009000040404040404040402020202020203032E
:1000A0000303030301020408102040800102040836
:1000B00010200102040810205F0411241FBECFEF9E
:1000C000D8E0DEBFCDBF11E0A0E0B1E0EEE5F1E1A8
:1000D00002C005900D92A833B107D9F721E0A8E33B
:1000E000B1E001C01D92AA3FB207E1F710E0CDE5F3
:1000F000D0E004C02197FE010E94A708CC35D107AB
:10010000C9F70E94A9040C94AD080C94000090E07B
:10011000FC01EC55FF4F249180579F4FFC018491C7
:10012000882399F090E0880F991FFC01EA57FF4F50
:10013000A591B491FC01E458FF4F859194918FB73C
:10014000F894EC91E22BEC938FBF089590E0FC01C2
:10015000E859FF4F2491FC01EC55FF4F3491FC010D
:10016000E057FF4FE491EE23C9F0222339F023300A
:1001700001F1A8F4213019F1223029F1F0E0EE0F5D
:10018000FF1FE458FF4FA591B4918FB7F894EC91FD
:10019000611126C030953E233C938FBF08952730D0
:1001A000A9F02830C9F0243049F7809180008F7D74
:1001B00003C0809180008F7780938000DFCF84B56B
:1001C0008F7784BDDBCF84B58F7DFBCF8091B0006E
:1001D0008F778093B000D2CF8091B0008F7DF9CF20
:1001E0003E2BDACF3FB7F8948091410190914201C4
:1001F000A0914301B091440126B5A89B05C02F3FB3
:1002000019F00196A11DB11D3FBFBA2FA92F982F3C
:100210008827BC01CD01620F711D811D911D42E037
:10022000660F771F881F991F4A95D1F70895AF92DF
:10023000BF92CF92DF92EF92FF920F931F93CF93D3
:10024000DF936C017B018B01040F151FEB015E0135
:10025000AE18BF08C017D10759F06991D601ED91CA
:10026000FC910190F081E02DC6010995892B79F769
:10027000C501DF91CF911F910F91FF90EF90DF901B
:10028000CF90BF90AF900895FC01538D448D252FE2
:1002900030E0842F90E0821B930B541710F0CF9620
:1002A000089501970895FC01918D828D981761F052
:1002B000A28DAE0FBF2FB11D5D968C91928D9F5F69
:1002C0009F73928F90E008958FEF9FEF0895FC0148
:1002D000918D828D981731F0828DE80FF11D858DFB
:1002E00090E008958FEF9FEF0895FC01918D228D8E
:1002F000892F90E0805C9F4F821B91098F73992713
:10030000089585E491E00E94750121E0892B09F4AC
:1003100020E0822F089580E090E0892B29F00E9450
:10032000810181110C9400000895FC01A48DA80F97
:10033000B92FB11DA35ABF4F2C91848D90E0019627
:100340008F739927848FA689B7892C93A089B18947
:100350008C91837080648C93938D848D981306C0E8
:100360000288F389E02D80818F7D80830895EF924C
:10037000FF920F931F93CF93DF93EC0181E0888F5F
:100380009B8D8C8D98131AC0E889F989808185FF2F
:1003900015C09FB7F894EE89FF896083E889F989D1
:1003A00080818370806480839FBF81E090E0DF91D3
:1003B000CF911F910F91FF90EF900895F62E0B8D26
:1003C00010E00F5F1F4F0F731127E02E8C8D8E11E1
:1003D0000CC00FB607FCFACFE889F989808185FF48
:1003E000F5CFCE010E949501F1CFEB8DEC0FFD2FE3
:1003F000F11DE35AFF4FF0829FB7F8940B8FEA8903
:10040000FB8980818062CFCFCF93DF93EC01888D11
:100410008823B9F0AA89BB89E889F9898C9185FD7F
:1004200003C0808186FD0DC00FB607FCF7CF8C910D
:1004300085FFF2CF808185FFEDCFCE010E9495012F
:10044000E9CFDF91CF910895089590E080E008957D
:10045000FC0101900020E9F73197AF01481B590BCF
:10046000BC0182EE91E00C9417018F929F92AF92A3
:10047000BF920F931F93CF93DF93CDB7DEB7A197B2
:100480000FB6F894DEBF0FBECDBF19A2423008F4FC
:100490004AE08E010F5D1F4F842E912CB12CA12CB0
:1004A000A50194010E948508E62FB901CA01EA302E
:1004B000F4F4E05DD801EE938D01232B242B252B42
:1004C00079F790E080E0109719F0CD010E942802A2
:1004D000A1960FB6F894DEBF0FBECDBFDF91CF91CE
:1004E0001F910F91BF90AF909F908F900895E95CFE
:1004F000E1CFCF93DF93EC0160E08E810E94A600F4
:1005000061E08E810E94A60060E08E810E94A600BC
:100510008BE891E00197F1F7DF91CF910895CF92A9
:10052000DF92EF92FF920F931F93CF93DF936C01B3
:100530007C0187E0E80EF11CD0E0C0E0062F10E05F
:10054000B8010C2E02C0759567950A94E2F76170A8
:10055000F70181917F010E94A6002196C430D10548
:1005600079F7C601DF91CF911F910F91FF90EF9026
:10057000DF90CF900C947902CF92DF92EF92FF92AE
:100580000F931F93CF93DF93EC01F62E642F8C8192
:100590000E94A6008D818F3F19F060E00E94A600A6
:1005A0000F2D10E08F8584FF25C06E0187E0C80EF7
:1005B000D11CF12CE12CB8010E2C02C07595679569
:1005C0000A94E2F76170F60181916F010E94A60022
:1005D000FFEFEF1AFF0A88E0E816F10461F7CE0199
:1005E000DF91CF911F910F91FF90EF90DF90CF900F
:1005F0000C947902B80184E0759567958A95E1F7C6
:10060000CE010E948F026F2DCE01DF91CF911F91FD
:100610000F91FF90EF90DF90CF900C948F0240E00D
:10062000682F82EE91E00C94BC02CF93DF9382306E
:1006300029F49091F10198609093F1018093F50174
:100640001092F60180E48093F70180E18093F80135
:1006500080E58093F9018091E6010E9487008091F6
:10066000E7018F3F11F00E9487008091E8010E940E
:100670008700C2EED1E09E01225E31408091F101FF
:1006800084FD0AC084E090E02196281739073CF4E5
:100690008E810E948700EFCF88E090E0F5CF8BE35A
:1006A0009DE00197F1F760E08091E6010E94A600CD
:1006B00060E08091E8010E94A6008091E7018F3FF1
:1006C00019F060E00E94A6008091F10184FD39C01C
:1006D00063E082EE91E00E948F02CBE4D6E4CE018B
:1006E0000197F1F763E082EE91E00E948F0221977B
:1006F000F1F763E082EE91E00E948F0283E592E0E1
:100700000197F1F762E082EE91E00E948F02809102
:10071000F10180620E940F0384E08093F2018CE07B
:100720000E940F0381E00E940F038BE39FE101977A
:10073000F1F782E08093F30186E0DF91CF910C9492
:100740000F0380620E940F038BE496E40197F1F798
:100750008091F10180620E940F0383E592E001978E
:10076000F1F78091F10180620E940F03D0CF41E048
:100770000E94BC0281E090E008951F920F920FB694
:100780000F9211242F933F938F939F93AF93BF9317
:1007900080913D0190913E01A0913F01B0914001B7
:1007A00030913C0123E0230F2D3758F50196A11D10
:1007B000B11D20933C0180933D0190933E01A09395
:1007C0003F01B09340018091410190914201A0917D
:1007D0004301B09144010196A11DB11D80934101D7
:1007E00090934201A0934301B0934401BF91AF9114
:1007F0009F918F913F912F910F900FBE0F901F905F
:10080000189526E8230F0296A11DB11DD2CF1F9285
:100810000F920FB60F9211242F933F934F935F9334
:100820006F937F938F939F93AF93BF93EF93FF93B8
:1008300085E491E00E949501FF91EF91BF91AF9106
:100840009F918F917F916F915F914F913F912F91E8
:100850000F900FBE0F901F9018951F920F920FB61A
:100860000F9211242F938F939F93EF93FF93E09117
:100870005501F09156018081E0915B01F0915C019E
:1008800082FD1BC0908180915E018F5F8F732091EC
:100890005F01821741F0E0915E01F0E0EB5BFE4FFB
:1008A000958F80935E01FF91EF919F918F912F9192
:1008B0000F900FBE0F901F9018958081F4CFE5E444
:1008C000F1E01382128288EE93E0A0E0B0E084832E
:1008D0009583A683B78385E091E09183808385EC3F
:1008E00090E09587848784EC90E09787868780ECFA
:1008F00090E0918B808B81EC90E0938B828B82ECEB
:1009000090E0958B848B86EC90E0978B868B118E94
:10091000128E138E148EE2EEF1E01382128287E1C2
:1009200091E0918380838CE084838FEF85838BE0DB
:10093000868385E0878384E0808783E0818782E007
:1009400082871386148615861686178681E00C9496
:100950001503789484B5826084BD84B5816084BDBC
:1009600085B5826085BD85B5816085BD80916E004D
:10097000816080936E00109281008091810082607E
:1009800080938100809181008160809381008091BB
:1009900080008160809380008091B10084608093AA
:1009A000B1008091B00081608093B00080917A00A6
:1009B000846080937A0080917A00826080937A00CC
:1009C00080917A00816080937A0080917A008068BB
:1009D00080937A001092C100E0915501F091560188
:1009E00082E08083E0915101F09152011082E09108
:1009F0005301F09154018FEC808310925D01E091DE
:100A00005901F0915A0186E08083E0915701F091FD
:100A10005801808180618083E0915701F0915801F5
:100A2000808188608083E0915701F0915801808136
:100A300080688083E0915701F091580180818F7D1B
:100A4000808383E08093000182E00E941503E1E04F
:100A50008091F5018111E0E0E195F0E0EE51FE4F6B
:100A6000848980680E940F03C0E0D0E0809100017B
:100A700020E4829FC001112480937C0080917A0041
:100A8000806480937A0080917A0086FDFCCF60912B
:100A9000780070917900072E000C880B990B0E944A
:100AA0005E0720E030E849E854E40E94130820E0A3
:100AB00030E040E256E40E94BB0660933801709338
:100AC000390180933A0190933B018FE191E00E94BC
:100AD0002802C0903801D0903901E0903A01F0909E
:100AE0003B01A7019601C701B6010E948008882337
:100AF000E1F186E291E00E94280282E391E00E9407
:100B0000280285E391E00E9428020E94F2004B0136
:100B10005C0184EFC82EDD24D394E12CF12C0E94DB
:100B2000F200681979098A099B09683E73408105BA
:100B30009105A8F381E0C81AD108E108F10828EE70
:100B4000820E23E0921EA11CB11CC114D104E10449
:100B5000F10429F7209709F489CF0E9481018823A5
:100B600009F484CF0E94000081CF46015701E89428
:100B7000B7F82FEF3FEF4FE75FE7C501B4010E94E1
:100B8000800881110DC02FEF3FEF4FE75FE7C501F0
:100B9000B4010E94B60618161CF48AE291E0ABCFAD
:100BA0002FEF3FEF4FE75FE4C701B6010E940E0849
:100BB00018161CF48EE291E09ECF2FEF3FEF4FE727
:100BC0005FECC701B6010E94B60687FDF3CF20E0B7
:100BD00030E0A901C701B6010E94B60687FF0AC02E
:100BE00041E06DE282EE91E00E94BC02F7FAF094DF
:100BF000F7F8F0942AE037ED43EA5BE3C701B6016A
:100C00000E944A064B015C010E942D076B017C018A
:100C10000E945C079B01AC01C501B4010E9449061A
:100C20004B015C014AE0C701B6010E94350241E078
:100C30006EE282EE91E00E94BC0220E030E040E2F1
:100C400051E4C501B4010E9413084B015C010E94EC
:100C50002D076B01F12CE12C4AE0C701B6010E947F
:100C60003502C701B6010E945C079B01AC01C501BA
:100C7000B4010E94490620E030E040E251E40E94C5
:100C800013080E942D0790E080E04AE00E943502A0
:100C900034CF5058BB27AA270E9461060C94D40772
:100CA0000E94C60738F00E94CD0720F039F49F3F1C
:100CB00019F426F40C94C3070EF4E095E7FB0C94AA
:100CC000BD07E92F0E94E50758F3BA1762077307BB
:100CD0008407950720F079F4A6F50C9407080EF424
:100CE000E0950B2EBA2FA02D0B01B90190010C013C
:100CF000CA01A0011124FF27591B99F0593F50F454
:100D0000503E68F11A16F040A22F232F342F4427AB
:100D1000585FF3CF469537952795A795F0405395A3
:100D2000C9F77EF41F16BA0B620B730B840BBAF073
:100D30009150A1F0FF0FBB1F661F771F881FC2F7DE
:100D40000EC0BA0F621F731F841F48F487957795F2
:100D50006795B795F7959E3F08F0B0CF9395880FAC
:100D600008F09927EE0F9795879508950E949907A7
:100D700008F481E008950E94CF060C94D4070E94E5
:100D8000CD0758F00E94C60740F029F45F3F29F0D4
:100D90000C94BD0751110C9408080C94C3070E94D1
:100DA000E50768F39923B1F3552391F3951B550B90
:100DB000BB27AA2762177307840738F09F5F5F4F2E
:100DC000220F331F441FAA1FA9F335D00E2E3AF06D
:100DD000E0E832D091505040E695001CCAF72BD085
:100DE000FE2F29D0660F771F881FBB1F26173707D6
:100DF0004807AB07B0E809F0BB0B802DBF01FF2708
:100E000093585F4F3AF09E3F510578F00C94BD0720
:100E10000C9408085F3FE4F3983ED4F386957795E9
:100E20006795B795F7959F5FC9F7880F911D9695C0
:100E3000879597F90895E1E0660F771F881FBB1F1C
:100E4000621773078407BA0720F0621B730B840BC9
:100E5000BA0BEE1F88F7E09508950E94ED0788F021
:100E60009F5798F0B92F9927B751B0F0E1F0660F6E
:100E7000771F881F991F1AF0BA95C9F714C0B130AF
:100E800091F00E940708B1E008950C940708672FBD
:100E9000782F8827B85F39F0B93FCCF386957795DE
:100EA0006795B395D9F73EF49095809570956195C7
:100EB0007F4F8F4F9F4F0895E89409C097FB3EF4F2
:100EC00090958095709561957F4F8F4F9F4F992397
:100ED000A9F0F92F96E9BB279395F6958795779515
:100EE0006795B795F111F8CFFAF4BB0F11F460FFD5
:100EF0001BC06F5F7F4F8F4F9F4F16C0882311F02D
:100F000096E911C0772321F09EE8872F762F05C040
:100F1000662371F096E8862F70E060E02AF09A95DB
:100F2000660F771F881FDAF7880F9695879597F9D0
:100F30000895990F0008550FAA0BE0E8FEEF16166A
:100F40001706E807F907C0F012161306E407F507BD
:100F500098F0621B730B840B950B39F40A2661F031
:100F6000232B242B252B21F408950A2609F4A140D4
:100F7000A6958FEF811D811D089597F99F6780E8E1
:100F800070E060E008959FEF80EC089500240A94DB
:100F90001616170618060906089500240A94121654
:100FA0001306140605060895092E0394000C11F487
:100FB000882352F0BB0F40F4BF2B11F460FF04C034
:100FC0006F5F7F4F8F4F9F4F089557FD9058440F8D
:100FD000551F59F05F3F71F04795880F97FB991F98
:100FE00061F09F3F79F08795089512161306140655
:100FF000551FF2CF4695F1DF08C0161617061806E2
:10100000991FF1CF86957105610508940895E894BC
:10101000BB2766277727CB0197F908950E94990788
:1010200008F48FEF08950E9426080C94D4070E94BC
:10103000C60738F00E94CD0720F0952311F00C94DC
:10104000BD070C94C30711240C9408080E94E507FF
:1010500070F3959FC1F3950F50E0551F629FF0010B
:10106000729FBB27F00DB11D639FAA27F00DB11D24
:10107000AA1F649F6627B00DA11D661F829F2227AD
:10108000B00DA11D621F739FB00DA11D621F839F34
:10109000A00D611D221F749F3327A00D611D231F0A
:1010A000849F600D211D822F762F6A2F11249F5758
:1010B00050409AF0F1F088234AF0EE0FFF1FBB1F5B
:1010C000661F771F881F91505040A9F79E3F51051A
:1010D00080F00C94BD070C9408085F3FE4F3983E41
:1010E000D4F3869577956795B795F795E7959F5FC4
:1010F000C1F7FE2B880F911D9695879597F9089556
:101100000E949907880B990B0895A1E21A2EAA1B39
:10111000BB1BFD010DC0AA1FBB1FEE1FFF1FA217A7
:10112000B307E407F50720F0A21BB30BE40BF50BA4
:10113000661F771F881F991F1A9469F7609570952D
:10114000809590959B01AC01BD01CF010895EE0FF4
:0E115000FF1F0590F491E02D0994F894FFCF55
:10115E000100000000B7011701440104027501539C
:10116E0001670100000000B7031701250224025495
:10117E00454D503A20006E616E00696E66006F76C6
:08118E0066002A43000D0A006F
:00000001FF
